:020000040000FA
:101400000C943E0A0C945B0A0C945B0A0C945B0AE5
:101410000C945B0A0C945B0A0C945B0A0C945B0AB8
:101420000C945B0A0C945B0A0C945B0A0C945B0AA8
:101430000C945B0A0C94511A0C945B0A0C945B0A92
:101440000C945B0A0C945B0A0C945B0A0C945B0A88
:101450000C945B0A0C945B0A0C945B0A0C945B0A78
:101460000C945B0A0C945B0A0C945B0A0C94C11AF2
:101470000C945B0A0C945B0A0C945B0A11241FBE4B
:10148000CFEFCDBFDFE3DEBF18E3A0E0B8E3E9E3D1
:10149000F0E402C005900D92A830B107D9F729E316
:1014A000A8E0B8E301C01D92AB36B207E1F70E9495
:1014B00030140C94101C0C94000A0FB6F8940F9280
:1014C000809117388F5F883018F48093173802C0E6
:1014D00010921738809118388F5F883008F087E0B5
:1014E000809318380F900FBE08952F923F924F921D
:1014F0005F926F927F928F929F92AF92BF92CF92A4
:10150000DF92EF92FF920F931F93CF93DF936B01C4
:101510007C01742E622E8EE0E9E1F8E3DF011D927A
:101520008A95E9F7442309F450C090E1892E912C63
:10153000A12CB12C1601270110E0C6E2D8E3C201AC
:10154000B101A50194010E947E1B19012A01219776
:101550006A3071058105910510F4605D01C0695C18
:10156000688381E0810F8D3031F0232B242B252BD4
:1015700021F0182FE4CFC0E0D0E0F7FE0DC07110CD
:101580000BC08615B8F5B8E3C931DB0799F190F1C6
:101590008DE28A9382E0810F9E01FE01319790E2F5
:1015A00040E3E901861530F558E32931350711F19B
:1015B00008F1002321F0F7FC02C0408301C09083B2
:1015C0008F5F215031093197ECCFF7FE0DC02224F7
:1015D000332421012C183D084E085F082AE0822E92
:1015E000912CA12CB12CA8CF8AE0882E912CA12C73
:1015F000B12CA0CFCE01DF91CF911F910F91FF9021
:10160000EF90DF90CF90BF90AF909F908F907F90A2
:101610006F905F904F903F902F900895853A41F0E2
:10162000833018F094E09093033831E0380F02C013
:1016300033E080E01092380A1092390A61E070E0DD
:10164000A7E4831798F429B1AB01082E01C0440F19
:101650000A94EAF7942F9095922399B9A89FF001E4
:101660001124E852F74C10828F5FEBCF109268394B
:1016700008950F931F93CF93DF93833018F094E076
:101680009093033890910C389F5F90930C38913071
:1016900009F096C0442319F094E090930B38C82FBA
:1016A00080910B38813009F477C038F0823079F1BD
:1016B000843009F081C085EA7BC0109268396623C6
:1016C00009F47AC087E4C89F800111240852174C9E
:1016D000F8018081811170C085EA0E940E0B29B14A
:1016E00081E090E001C0880FCA95EAF7822B89B9A2
:1016F00084E690E08093380A9093390A82E0F801FA
:10170000808380930B3881E08093683956C0809144
:101710000A388F5F80930A388430A9F5D0910B0680
:101720000C2F10E0D33091F48C2F0E940E0B87E425
:10173000809FF001819FF00D1124E852F74CD08377
:1017400082E00E945D0A10920B3812C088E290E09D
:101750008093380A9093390A87E4809FF001819F33
:10176000F00D1124E852F74C81E0808380930B3810
:1017700010920A3883E080930B06809100068E7FDA
:101780008093000619C08091000681608093000656
:1017900081E08093080611C061110EC087E4C89FE4
:1017A000F0011124E852F74C8081813029F48C2F0C
:1017B0000E940E0B10920B3880E010920C3801C082
:1017C00080E0DF91CF911F910F9108951F93CF93E8
:1017D000DF93EC01162F8091021081FDFCCF44E0D5
:1017E0006DE980E090E10E94521B188343E06DE9AF
:1017F00080E090E10E94521B8091021081FDFCCF9D
:10180000DF91CF911F910895CF92DF92EF92FF92D7
:101810001F93CF93DF936B017C01EA01122F80911C
:10182000793881111FC065EA80E093E10E94E60BE0
:1018300060E081E093E10E94E60B60E082E093E1EA
:101840000E94E60B60E083E093E10E94E60B81E0FA
:1018500080937938109275381092763810927738D4
:101860001092783884E0C816D104E104F104A9F19B
:1018700068F481E0C816D104E104F104E1F082E0EB
:10188000C816D104E104F104F9F05BC080E1C81688
:10189000D104E104F104C1F180E2C816D104E104ED
:1018A000F10409F43FC088E0C816D104E104F10452
:1018B00009F047C01BC0113019F084E08093033851
:1018C000688184E093E13BC0113019F084E080939B
:1018D0000338688185E093E132C0113019F084E06B
:1018E00080930338688186E093E129C0123019F0B3
:1018F00084E080930338688187E093E10E94E60BDF
:10190000698188E093E11BC0123019F084E0809374
:101910000338688189E093E10E94E60B69818AE0DF
:1019200093E10DC0123019F084E080930338688190
:101930008BE093E10E94E60B69818CE093E10E94C9
:10194000E60B8091753890917638A0917738B091F8
:1019500078388C219D21AE21BF21892B8A2B8B2B9E
:1019600009F041C08091753890917638A091773810
:10197000B0917838C82AD92AEA2AFB2AC092753849
:10198000D0927638E0927738F09278388091753836
:1019900090917638A0917738B091783860E081E006
:1019A00093E10E94E60B8091753890917638A09172
:1019B0007738B091783860E082E093E10E94E60BDE
:1019C0006091753870917638809177389091783839
:1019D00083E093E1DF91CF911F91FF90EF90DF9033
:1019E000CF900C94E60BDF91CF911F91FF90EF9079
:1019F000DF90CF9008950F9AF8942FE986E891E050
:101A0000215080409040E1F700C0000080914101EA
:101A10008111FCCF809142018E7F809342018091A1
:101A200040018E7F8093400141E068ED81E490E0C9
:101A30000E94521BFFCF099A019A0E9A2091060824
:101A4000206420930608282FFC018E2F821B861706
:101A500040F48191809302088091040885FFFCCFB7
:101A6000F4CF87E592E00197F1F700C00000809184
:101A700006088F7B8093060880911104877F8093EE
:101A8000110401980E980895009711F484E298EBE0
:101A9000099A019A0E9A209106082064209306085C
:101AA000FC019C0125503F4F8191882351F0E217A2
:101AB000F30739F0809302088091040885FFFCCF7A
:101AC000F3CF87E592E00197F1F700C00000809125
:101AD00006088F7B8093060880911104877F80938E
:101AE000110401980E9808958F929F92AF92BF9221
:101AF000CF92DF92EF92FF92109273381092723869
:101B00008FEF809371381092703881E090910013BC
:101B1000953A09F080E0809379388091793888236C
:101B200009F4D1C010927538109276381092773837
:101B3000109278388091753890917638A0917738E6
:101B4000B091783820910113A22B8093753890932F
:101B50007638A0937738B093783880917538909123
:101B60007638A0917738B091783820910213922B73
:101B70008093753890937638A0937738B0937838FF
:101B80008091753890917638A0917738B0917838F7
:101B900020910313822B8093753890937638A0930D
:101BA0007738B09378388091753890917638A091D5
:101BB0007738B091783880FF03C08091041301C05A
:101BC0008FEF809392388091753890917638A091FC
:101BD0007738B091783881FF03C08091051301C038
:101BE0008FEF8093D9388091753890917638A09195
:101BF0007738B091783882FF0FC0809106138093B8
:101C00002039E2E9F8E323E030E0A7E0B3E141E086
:101C100050E06CEB72E047C08FEFF1CF90917238DB
:101C20009F5F9093723890917138891730F4809348
:101C300071389091713890937338909170389817EB
:101C400010F4809370388090753890907638A0901A
:101C50007738B09078386A01022E02C0CC0CDD1CB7
:101C60000A94E2F70D2C000CEE08FF08C820D920DA
:101C7000EA20FB20CD28CE28CF28D1F011968C91D8
:101C8000119790E0982F8827868B978BFC908F294F
:101C9000868B978BE95BFF4F12962F5F3F4FAD30DE
:101CA00083E1B80741F080818F3F09F0B7CFF2CFD1
:101CB000668B778BEFCF80917038811121C08FEFC9
:101CC000809370381DC08FEF809370388CEB92E05A
:101CD0008093A8389093A9388093EF389093F03888
:101CE000809336399093373988E498EBFF90EF90E2
:101CF000DF90CF90BF90AF909F908F900C94440D49
:101D0000FF90EF90DF90CF90BF90AF909F908F901B
:101D100008958EE698EB0E94440D809167398823E0
:101D200019F08FE798EB02C087E898EB0E94440D0A
:101D30008BE39BEB0C94440D80E998EB0E94440DDF
:101D400080916939882319F08CE998EB02C08EE9FB
:101D500098EB0E94440D85EA98EB0E94440D809117
:101D60000538882319F08CE998EB02C08EE998EBCE
:101D70000E94440D8BE39BEB0C94440D0F938BE37B
:101D80009BEB0E94440D82EB98EB0E94440D00E017
:101D900020E040E060E070E0CB010E94750A0E9404
:101DA000440D86EA9EEB0E94440D20E040E06AE08C
:101DB00070E080E090E00E94750A0E94440D8BE381
:101DC0009BEB0F910C94440DCF92DF92EF92FF9218
:101DD0000F93CF93DF9384ED98EB0E94440D6091B5
:101DE000743870E080E090E000E021E040E00E9484
:101DF000750A0E94440D8EED98EB0E94440D60918F
:101E0000733870E080E090E021E040E00E94750AC5
:101E10000E94440D89EE98EB0E94440D6091723847
:101E200070E080E090E021E040E00E94750A0E94AE
:101E3000440D86EF98EB0E94440D6091713870E07C
:101E400080E090E021E040E00E94750A0E94440D8D
:101E500080E099EB0E94440D6091703870E080E062
:101E600090E021E040E00E94750A0E94440D8DE35D
:101E70009BEB0E94440DC2E9D8E3C12CD12C760122
:101E80008AE099EB0E94440D00E021E040E0C701A8
:101E9000B6010E94750A0E94440D81E199EB0E94EF
:101EA000440D688170E080E090E023E040E00E9413
:101EB000750A0E94440D8AE199EB0E94440D6E89D7
:101EC0007F89072E000C880B990B01E023E041E08D
:101ED0000E94750A0E94440D8DE39BEB0E94440D05
:101EE0008FEFC81AD80AE80AF80AC95BDF4F83E007
:101EF000C816D104E104F10419F6DF91CF910F91D6
:101F0000FF90EF90DF90CF900895CF92DF92EF9205
:101F1000FF920F93CF93DF9386E299EB0E94440DDB
:101F200080910738882319F08FE798EB02C087E883
:101F300098EB0E94440D8DE39BEB0E94440D0E94A0
:101F40009C0EC7E9D8E3C12CD12C76018FE299EB26
:101F50000E94440D00E021E040E0C701B6010E946C
:101F6000750A0E94440D86E399EB0E94440D6BAD07
:101F700070E080E090E021E041E00E94750A0E945C
:101F8000440D82E499EB0E94440D6CAD7DAD80E080
:101F900090E001E023E041E00E94750A0E94440DB8
:101FA0008EE499EB0E94440D6EAD7FAD072E000CC0
:101FB000880B990B00E025E040E00E94750A0E9422
:101FC000440D85E599EB0E94440DFE013497608134
:101FD00070E080E090E023E040E00E94750A0E94FB
:101FE000440D81E699EB0E94440D8881882319F005
:101FF0008DE699EB02C082E799EB0E94440D8DE3D8
:102000009BEB0E94440D89E799EB0E94440D8A8561
:10201000882319F08BE899EB02C08FE899EB0E94B6
:10202000440D83E999EB0E94440D6B857C858D8579
:102030009E8500E028E040E00E94750A0E94440D61
:102040008AE999EB0E94440D6F857889072E000C70
:10205000880B990B25E040E00E94750A0E94440D10
:1020600081EA99EB0E94440D69897A89072E000C58
:10207000880B990B25E040E00E94750A0E94440DF0
:1020800088EA99EB0E94440D6B897C89072E000C2D
:10209000880B990B25E040E00E94750A0E94440DD0
:1020A0008DE39BEB0E94440D8FEA99EB0E94440D57
:1020B0006A817B818C819D8125E040E00E94750AC8
:1020C0000E94440D80EC99EB0E94440D6E817F814B
:1020D0008885998525E040E00E94750A0E94440D9C
:1020E0008BE39BEB0E94440D8FEFC81AD80AE80AD5
:1020F000F80AC95BDF4F83E0C816D104E104F1049C
:1021000009F024CFDF91CF910F91FF90EF90DF90F6
:10211000CF900895CF92DF92EF92FF920F93CF93DB
:10212000DF938AEC99EB0E94440D80916A398823F1
:1021300019F08FE798EB02C087E898EB0E94440DF6
:1021400080916A39882379F085ED99EB0E94440DDE
:1021500080910638882319F08DED99EB02C082EE4C
:1021600099EB0E94440D8DE39BEB0E94440D0E946D
:102170009C0EC8EDD8E3C12CD12C76018AE099EBF6
:102180000E94440D00E021E040E0C701B6010E943A
:10219000750A0E94440D89EE99EB0E94440D8881D6
:1021A000813071F038F0823041F0833061F484E0A6
:1021B0009AEB0BC085EF99EB08C08AEF99EB05C04D
:1021C0008FEF99EB02C089E09AEB0E94440D8DE3FA
:1021D0009BEB0E94440D8FEFC81AD80AE80AF80A50
:1021E000C95BDF4F83E0C816D104E104F10431F686
:1021F000DF91CF910F91FF90EF90DF90CF900895F6
:102200002F923F924F925F926F927F928F929F9206
:10221000AF92BF92CF92DF92EF92FF920F931F93F4
:10222000CF93DF93CDB7DEB72897CDBFDEBF3C019C
:1022300090910F389F5F90930F38913009F0F8C25A
:10224000442319F082E080930E3890910E3891303B
:1022500009F464C0E0F0923009F0E6C21092450A39
:102260008091400A8E7F8093400A1092903810929D
:102270009138E0910D3837E4E39FF0011124EE56D8
:10228000F74C12821382148210920E38CDC28091C4
:102290000D3837E4839FF0011124EE56F74C9081FE
:1022A0009F3F21F490916739992379F1811102C000
:1022B0008DE007C0813011F48EE003C0823019F444
:1022C0008FE08093820110928F3882E1EDE7F8E38E
:1022D000DF011D928A95E9F71092903881E0809392
:1022E000913810924C0A10924D0A10924A0A10929C
:1022F0004B0A8093460A8093450A9091400A916068
:102300009093400A80930E388FC28F5F833019F00C
:1023100080930D3889C210920D3886C27B011092CD
:1023200091381092450A8091400A8E7F8093400A2E
:102330008091903810910D38882309F438C2FE013D
:10234000319688E0DF011D928A95E9F780917D380A
:1023500090917E386CE370E00E94561B63337105E8
:1023600080F483E390E0861B970BAC01569547956C
:1023700080FF02C04F5F5F4F2CE330E0241B350B22
:1023800011C06333710561F0635371099B01369588
:10239000279560FF02C02F5F3F4F245C3F4F02C074
:1023A0002CE330E05F01CC24C394D12C45E0C6017E
:1023B000880F991FFC01E358F74C4F0180819181F0
:1023C000B9010E94561BFB01D4018D919C91B9016A
:1023D0000E94561B880F991F2817390708F4319659
:1023E00089EF8E0FF50181935F019EEF9C0D963072
:1023F00038F4E42FF0E0E75DFF43E081482F4E27FB
:10240000FFEFCF1ADF0A59E0C516D10481F6E42F99
:10241000F0E0E75DFF432081888528134AC1C12E83
:10242000D12C67E4169FC0011124DC01AE56B74CD5
:102430005D01FD01E05CFF4F8981808331963A8127
:102440008B81B0E18B9FC0011124932B3C81832BA6
:10245000808391833D818E81E0E18E9FC0011124B4
:10246000932B3F81832BF501ED5BFF4F808391839D
:1024700032962083D5011F962C911F972111EFC012
:1024800056962D913C915797FC01E21BF30B9F014F
:10249000AF01FF0F660B770B5A968D919D910D90B2
:1024A000BC91A02D480F591F6A1F7B1FD5015A965A
:1024B0004D935D936D937C935D975E968C915E9743
:1024C00091E0980F5E969C935E9783705F96EC9177
:1024D0005F97E11105C0953018F091E05F969C93ED
:1024E00097E49C9DF0019D9DF00D1124DF01AE56F7
:1024F000B74C5F960C915F97082E000C990B409695
:10250000880F991FE80FF91FEE56F74C0023D9F0FA
:10251000808191814C01990FAA08BB08481959097B
:102520006A097B095A964D935D936D937C935D97F1
:102530002083318382E075956795579547958A95F5
:10254000D1F79A0102C02083318387E48C9DF0018A
:102550008D9DF00D1124EE56F74C86818823E9F00D
:1025600083859485A585B6850196A11DB11D8387B8
:102570009487A587B6874097A105B105E8F0273E67
:10258000BFEF3B07CCF417821086118612861682A5
:10259000BB24B394AA24A39436C087819085A185D7
:1025A000B2850196A11DB11D87839087A187B2874F
:1025B0004097A105B10510F4B12C0FC02F303105A3
:1025C00084F4223F4FEF3407BCF31386148615863C
:1025D000168681E08683BB24B3941216130614F08A
:1025E00011C0B12C87E48C9DF0018D9DF00D11245C
:1025F000EE56F74CC9016EE170E00E946A1B6183E0
:10260000A12C0AC0A12C87E48C9DF0018D9DF00DBA
:102610001124EE56F74C1182C9010E964D9750F4D5
:1026200087E48C9DF0018D9DF00D1124EE56F74C42
:1026300015820AC087E48C9DF0018D9DF00D112458
:10264000EE56F74C81E0858387E48C9DF0018D9DEB
:10265000F00D1124EE56F74C208F318F3AC0092E21
:10266000000CAA0BBB0BF501408951896289738963
:102670001C012D01240E351E461E571EC201B1013C
:10268000D50150962D923D924D925C92539724899C
:1026900035892F5F3F4F248B358B032E000C440B65
:1026A000550B0E94A01BF501268B378BB12CA12C5A
:1026B00010C0B12C212F30E047E4149FF001112409
:1026C000EE56F74C82818F3F09F452C08F5F8283B0
:1026D0004FC080916939882309F43FC08091053843
:1026E0008823D9F1BB20C9F180916839882319F07A
:1026F000A11003C00BC0A11009C057E4159FF00141
:102700001124E852F74C8081833039F585E19AEB4A
:102710000E94440DA11003C080E19AEB02C08EE03C
:102720009AEB0E94440D8DE19AEB0E94440D60915A
:102730000D3870E080E090E000E020E040E00E9492
:10274000750A0E94440D8DE39BEB0E94440D80911D
:102750000D38D3018C93F701A082E0910D3837E456
:10276000E39FF0011124EE56F74C128213824FC002
:1027700087E4829F8001839F100D11240E56174C11
:10278000D80112962C91129713968C91139790E082
:10279000820F911D0697DCF114968C91811137C040
:1027A00081E00E945D0A81E0F801848330C080915D
:1027B000673981112BC0212F30E047E4149FF001CD
:1027C0001124EE56F74C83818F3F11F08F5F838386
:1027D00087E4829F8001839F100D11240E56174CB1
:1027E000D80112962C91129713968C91139790E022
:1027F000820F911D069754F014968C91811106C09A
:1028000081E00E945D0A81E0F8018483B12C80910F
:102810000D388F5F833019F080930D3802C010920D
:102820000D3810920E3801C0B12C10920F3801C033
:10283000B12C8B2D2896CDBFDEBFDF91CF911F919C
:102840000F91FF90EF90DF90CF90BF90AF909F904F
:102850008F907F906F905F904F903F902F90089552
:10286000CF93DF9300D0CDB7DEB741E068ED81E6CE
:1028700090E00E94521B81E090913F13923409F442
:1028800080E08093043880910438811103C084E093
:102890008093033843E04093743880911704877F16
:1028A000809317040F9A079A80913204877F809350
:1028B000320480913504877F8093350480915304DE
:1028C000877F809353042A98229A2D98259A4B98B3
:1028D000439A80911304877F809313040398809117
:1028E0001404877F80931404049880911504877FD3
:1028F0008093150405981092400A24E02093410A21
:1029000081E08093440A10924C0A10924D0A109272
:102910004A0A10924B0A1092450A9DE09093820158
:102920004093920190915004977F9093500448985F
:10293000409A90915104977F909351044998419AFD
:1029400090915204977F909352044A98429A9091A2
:1029500002029160909302022B98239A93E1909344
:10296000010A80930E0A63E670E06093260A709372
:10297000270A8093000A1092380A1092390A80E1DF
:102980008093A00092E09093A10080913404877F0F
:102990008093340480913404887F8460809334046D
:1029A00087E0809302062093040610920A06409363
:1029B0000B0689E0809306062DE831E0209314068B
:1029C000309315062EE230E0209312063093130662
:1029D00090930006809101028160809301028091B2
:1029E0001604877F80931604069A0E980198029821
:1029F0008BE591E08093080890930908A091251138
:102A000020910808309109080A2E000CBB0BBC5F0E
:102A10000E94BF1BDC01CB01FAE0B595A795979505
:102A20008795FA95D1F78093080890930908409309
:102A30000708109206081092470110924501109263
:102A40004201809141018111FCCF1092400110920E
:102A50004C0110924D0110924801109249011092C0
:102A60004A0110924B012898209A80913004877F68
:102A7000809330042998219A80913104877F809334
:102A8000310484E0809310088DE280931608109240
:102A9000130881E080931308809114088860809364
:102AA000140880911508816080931508809115089D
:102AB000806C8093150841E068ED80E191E00E9410
:102AC000521B2FE73AE186E0215030408040E1F789
:102AD00000C00000789410926F380E94BE0EEBE4A4
:102AE000F8E384E2DF011D928A95E9F7E093493823
:102AF000F0934A38109248388FE39AEB0E94440DC5
:102B000080E880930608809305080E94740D76E0A3
:102B1000F72EE7E6CE2EE9E3DE2E02E918E3F80110
:102B200080818F3FE1F040E0BE016F5F7F4FCE01BB
:102B300002960E94001187EA91E60197F1F700C022
:102B4000000040E0BE016F5F7F4FCE0102960E9401
:102B50000011A7EAB1E61197F1F700C00000095B88
:102B60001F4FC016D106D9F6FA94F110D6CFE2E97C
:102B7000F8E381E086831782108611861286138619
:102B8000148615861686DF01AA5BBF4F1C92E95B8F
:102B9000FF4FB9E3E736FB0769F74424439437E472
:102BA000532ECC24C394D12C22242A9450E9352EC0
:102BB00011E06BE4A62E68E3B62EE7EAF1E6319762
:102BC000F1F700C0000080911638811102C02A9AE6
:102BD00001C02A98809116388425809316388091F8
:102BE00010388F5F809310388A3009F066C080916A
:102BF0006F38882309F45FC0ABE4B8E380E090E06D
:102C00002D912032A1F49923D9F3843058F428E08F
:102C1000829FF0011124E85DF74CE90FF11D10824D
:102C20008F5FEDCF8093273883E49AEB2FC02D3050
:102C3000B1F4911103C081110FC044C180932738B2
:102C4000843090F738E0839FF0011124E85DF74C61
:102C5000E90FF11D10828F5F8093273835C19830BE
:102C600058F438E0839FF0011124E85DF74CE90F38
:102C7000F11D20839F5FC4CF8093273881E69AEBB4
:102C800005C0023009F4A3C188EB9AEB0E94440D01
:102C9000ABE4B8E3E4E21D92EA95E9F7A092493883
:102CA000B0924A381092483863E08FE39AEB0E9462
:102CB0001B0D10926F38109210388091023890914D
:102CC0000738891761F041E063E178E384E198E334
:102CD0000E940011809107388093023813C0882326
:102CE00089F080911238882321F080916A3981110E
:102CF00009C040E063E178E384E198E30E940011B9
:102D0000809312389091113800916A39901306C05F
:102D10008091013820910638821771F041E060916E
:102D20001338809114380E94390B00931138809128
:102D300006388093013821C09923F9F081110EC023
:102D400090917A38992351F040E060917B388091DE
:102D50007C380E94390B80937A380FC090911238DA
:102D6000992359F0882349F040E06091133880910D
:102D700014380E94390B80931238809109388F5F84
:102D800080930938843609F087C09AE0809115084D
:102D90008370833051F4915009F476C0A9EFB0E00C
:102DA0001197F1F700C00000F1CF309217088AE0C8
:102DB0009091150896FD09C08150D9F0E9EFF0E037
:102DC0003197F1F700C00000F3CF8091150884FD22
:102DD00010C0109218088AE09091150896FD0FC057
:102DE000815039F0A9EFB0E01197F1F700C0000071
:102DF000F3CF8091140883608093140845C08091BC
:102E000014088360809314089AE0809115088370F9
:102E1000833049F49150C1F1E9EFF0E03197F1F7D7
:102E200000C00000F2CFF1E9F09317088091150877
:102E300084FD2AC080E09AE02091150827FD09C092
:102E4000915011F1A9EFB0E01197F1F700C0000027
:102E5000F3CF90911408813049F494609093140852
:102E60009091180890911408936008C09B7F9093EC
:102E70001408909118089091140892609093140887
:102E80008F5F8230C1F606C084E00E945D0A84E054
:102E90008093033810920938809108388F5F8093AF
:102EA000083890910338891388CE809100388111B9
:102EB00002C00F9A01C00F988425809300381092A9
:102EC00008387BCE1092273800912738002309F468
:102ED000DFCE6EE77AEB88E298E30E94FC1B892B39
:102EE000B1F4013009F0D0CE82E89AEB0E94440D93
:102EF0008FE39DE0A3E081509040A040E1F700C047
:102F0000000062E48FE393E10E94E60BCAC161ED29
:102F10007AEB88E298E30E94FC1B892B09F043C0FE
:102F2000013049F485ED9AEB0E94440D85EF9AEB50
:102F30000E94440D35C0043009F0A6CE90E3692EFE
:102F400098E3792E22E9E22E28E3F22E812C912CAF
:102F5000C3010E94D51B882319F0F701808302C0AA
:102F6000D7012C92B601082C02C0660F771F0A9475
:102F7000E2F7072E000C880B990B21E0A7010E94B5
:102F8000040CBFEF8B1A9B0AE8E06E0E711CF7E48D
:102F9000EF0EF11C23E082169104D1F60E94740D0D
:102FA0000E94E40E75CE60E47BEB88E298E30E9419
:102FB000FC1B892B39F5013009F063CE84E49BEBCF
:102FC0000E94440D84E69BEB0E94440D0AC066E912
:102FD0007BEB80E398E30E94FC1B892B29F4109380
:102FE00067390E94890E54CE69E97BEB80E398E350
:102FF0000E94FC1B892B19F410926739F2CF8DE9DE
:103000009BEB44CE6CEB7BEB88E298E30E94FC1BCD
:10301000892B51F5013009F037CE8DE39BEB0E94EF
:10302000440D81EC9BEB0E94440D8FED9BEB0E94C5
:10303000440D87E09CEB0E94440D83E39CEB0E94CF
:10304000440D87E59CEB0E94440D8EE69CEB0E94AC
:10305000440D8DE99CEB0E94440D83EB9CEB0E9498
:10306000440D86ED9CEB12CE65E57DEB88E298E39E
:103070000E94FC1B892B09F06BC0013049F484EFDE
:103080009CEB0E94440D85E19DEB0E94440DAFC175
:10309000033009F0F9CD6EE47DEB80E398E30E9404
:1030A000FC1B892BB9F465E57DEB88E398E30E946E
:1030B000FC1B892B19F41092693999C163E57DEBEA
:1030C00088E398E30E94FC1B892B09F093C11093BD
:1030D00069398DC16AE57DEB80E398E30E94FC1BB2
:1030E000892B91F465E57DEB88E398E30E94FC1B56
:1030F000892BE9F063E57DEB88E398E30E94FC1BF4
:10310000892B09F077C121C06EE57DEB80E398E360
:103110000E94FC1B892B09F06DC165E57DEB88E3FE
:1031200098E30E94FC1B892B29F4109369391092B3
:1031300005385DC163E57DEB88E398E30E94FC1BE5
:10314000892B09F057C110936939109305384FC185
:1031500062E67DEB88E298E30E94FC1B892BC9F5AF
:10316000013009F091CD85E69DEB0E94440DE12CE4
:1031700083E1F82E612C712C430188E79DEB0E94BE
:10318000440D01E022E040E0C401B3010E94750A51
:103190000E94440D8FE79DEB0E94440DD7016D9175
:1031A0007D0170E080E090E022E041E00E94750A3D
:1031B0000E94440D8DE39BEB0E94440DBFEF6B1A00
:1031C0007B0A8B0A9B0AE0E4EE16E3E1FE06A9F611
:1031D0005FCD63E87DEB88E298E30E94FC1B892BBE
:1031E00009F047C0013069F488E89DEB0E94440D66
:1031F00089EA9DEB0E94440D81ED9DEB0E94440DF8
:1032000018C00230C9F466E97BEB80E398E30E94C2
:10321000FC1B892B19F4109307380BC069E97BEB71
:1032200080E398E30E94FC1B892B09F0E8CE109202
:1032300007380E94850F2CCD033009F025CD80E39F
:1032400098E30E94D51B833088F47C01FF245E9CA8
:10325000F0015F9CF00D1124EE56F74C80818F3FFA
:1032600009F0CBC0809167398111C7C08FE09EEB18
:103270000DCD62E97EEB88E298E30E94FC1B892B6E
:1032800091F4013009F000CD88E99EEB0E94440DD5
:103290002FE33DE083E0215030408040E1F700C063
:1032A00000000E94FB0C68EA7EEB88E298E30E9433
:1032B000FC1B892B09F08AC0013069F48CEA9EEB73
:1032C0000E94440D8CEC9EEB0E94440D83EF9EEB1C
:1032D0000E94440DE3C0023041F568E27FEB80E3D9
:1032E00098E30E94FC1B892B29F410936A391093F0
:1032F0000638D4C06DE27FEB80E398E30E94FC1BAC
:10330000892B29F410936A3910920638C7C069E9ED
:103310007BEB80E398E30E94FC1B892B19F410924D
:103320006A39BCC081E39FEBB1CC033009F0ACCC6F
:1033300080910638811147C080916A39882309F449
:1033400042C0809130388053833068F480937C3859
:1033500065E57DEB88E398E30E94FC1B892B31F443
:1033600010927B380DC084E49FEB0EC063E57DEBCB
:1033700088E398E30E94FC1B892B21F410937B388F
:1033800081E005C08AE59FEB0E94440D80E09091AA
:103390007B389923A9F020917C38E8EDF8E390E0A0
:1033A0003081313041F4921731F08EE79FEB0E946B
:1033B000440D80E005C09F5FE95BFF4F933081F7CC
:1033C00080937A3865CC8AEA9FEB60CC6EEC7FEB19
:1033D00088E298E30E94FC1B892B31F4013009F04C
:1033E00053CC0E94BE0E54CC82ED9FEB4FCC0E947A
:1033F0009C0E4ECC87EE9FEB49CC6BEF7FEB88E3C6
:1034000098E30E94FC1B892B89F45E9CF0015F9C71
:10341000F00D1124EE56F74C108A118A128A138A85
:10342000148A158A168A178A478632CC64E57EEBA1
:1034300088E398E30E94FC1B892B49F45E9CF00111
:103440005F9CF00D1124EE56F74C178621CC69E5F0
:103450007EEB88E398E30E94FC1B892BE1F45E9CE1
:10346000A0015F9C500D1124FA01EE56F74C17860F
:103470004855574CF3E0EF0EF11CB60102C0660F41
:10348000771FEA94E2F7072E000C880B990B22E0D5
:103490000E94040CFDCB8EE59EEBF8CB0E948A10B7
:1034A000F7CB1F920F920FB60F9211242F938F9389
:1034B0009F93EF93FF9380919138882309F454C030
:1034C00080918F38893008F04CC0809190388111FC
:1034D00048C0E0918F38F0E080914C0A90914D0AFD
:1034E000EE0FFF1FE358F74C8083918380918F3854
:1034F000811131C080917D3890917E388C389A400E
:1035000038F080917D3890917E3881329D4018F05E
:1035100010928F3829C080911538811102C02D9AE0
:1035200001C02D989091153881E089278093153836
:1035300080918F388F5F80938F38809115388111FB
:1035400002C02D9A01C02D989091153881E08927ED
:103550008093153809C080918F388F5F80938F38A2
:1035600003C081E08093903881E08093460AFF9108
:10357000EF919F918F912F910F900FBE0F901F9001
:1035800018951F920F920FB60F9211240F931F934D
:103590002F933F934F935F936F937F938F939F935B
:1035A000AF93BF93EF93FF93CF93DF9300D0CDB74B
:1035B000DEB7809101088A838091000889838A811F
:1035C00082FD59C0898190916F38911154C09091BA
:1035D00048389432D8F50091493810914A38D801CA
:1035E0008C938D3041F48DE39BEB0E94440D81E080
:1035F00080936F3840C0883089F49923E1F1F80155
:1036000010823197E0934938F0934A3880E2808302
:1036100091509093483881E090EC2BC090E00E944C
:10362000F51B892B41F161E0C8010E941B0D8091BF
:10363000493890914A3801968093493890934A3896
:10364000809148388F5F8093483815C0EBE4F8E3E9
:1036500084E2DF011D928A95E9F7E0934938F093FF
:103660004A381092483885E090EC0E94440D8FE370
:103670009AEB0E94440D0F900F90DF91CF91FF9134
:10368000EF91BF91AF919F918F917F916F915F91DA
:103690004F913F912F911F910F910F900FBE0F905F
:1036A0001F901895FC0164BF40830895AA1BBB1BA3
:1036B00051E107C0AA1FBB1FA617B70710F0A61B32
:1036C000B70B881F991F5A95A9F780959095BC0153
:1036D000CD01089597FB072E16F4009407D077FDCF
:1036E00009D00E94561B07FC05D03EF490958195A9
:1036F0009F4F0895709561957F4F0895A1E21A2E0E
:10370000AA1BBB1BFD010DC0AA1FBB1FEE1FFF1F85
:10371000A217B307E407F50720F0A21BB30BE40BD5
:10372000F50B661F771F881F991F1A9469F760951C
:103730007095809590959B01AC01BD01CF010895D6
:10374000052E97FB1EF400940E94B71B57FD07D06F
:103750000E947E1B07FC03D04EF40C94B71B5095BF
:103760004095309521953F4F4F4F5F4F089590956D
:103770008095709561957F4F8F4F9F4F08950E9460
:10378000C61BB7FF0895821B930B0895A29FB0013B
:10379000B39FC001A39F700D811D1124911DB29F85
:1037A000700D811D1124911D0895FC018827992712
:1037B000E89421912032E9F3293010F02E30C8F33B
:1037C0002B3241F02D3239F4689404C00E94051C5C
:1037D000820F911D219120532A30C0F31EF4909541
:1037E00081959F4F0895803209F091110C940D1C22
:1037F00080528F55D8F70895FB01DC018D9101901F
:1038000080190110D9F3990B08957AE0979F902DB4
:10381000879F802D910D1124089599278827089559
:10382000F894FFCF0D0A2A2A206E756C6C20706FF9
:10383000696E74657220696E2052617755415254E9
:103840005072696E740D0A000D0A4E6F2064617427
:103850006120696E20454550524F4D2C207573698B
:103860006E672064656661756C74730D0A0046614D
:1038700063746F7279546573744D6F64653D004570
:103880004E41424C45440044495341424C4544005A
:10389000476C6F62616C4C6F636B3D00554E4C4FD3
:1038A000434B4544002C204C6F63616C4C6F636B41
:1038B0003D004D696E696261722F46464620447232
:1038C000617765722053656E736F7220426F61720B
:1038D000642076004E6F6465547970653D002C203D
:1038E000427573416464723D002C204472617765B7
:1038F00072436E743D002C204D696E4465783D0026
:103900002C204D61784465783D0044726177657282
:10391000003A20496E6465783D002C204F53434F98
:1039200046533D30780053656E736F72733D00539C
:10393000656E736F72003A205374617475733D3015
:1039400078002C2053656E736F723D3078002C2008
:103950004F53433D002C2044697374616E63653D91
:10396000006D6D2C204472617765723D004F5045AB
:103970004E00434C4F53454400202020202020205F
:10398000202043616C634F46533D0059455300204E
:103990004E4F002C2053756D3D002C20436E743D1E
:1039A000002C204F46533D002C2041444A3D00202E
:1039B0002020202020202020554E4C436E743D00B6
:1039C0002C204C4F4B436E743D00536F6C656E6FF3
:1039D0006964733D002C204D6F64653D0041555472
:1039E0004F004D414E55414C003A20536F6C656E6F
:1039F0006F69643D0049444C45005049434B0048C1
:103A00004F4C44004641494C00554E4B2100554E09
:103A10004C4F434B000D0A4D5439393A0020776F13
:103A2000756C642068617665206265656E207365DB
:103A30006E7420666F722053656E736F722D003E38
:103A40003E20002A2A20746F6F206D616E792074E9
:103A50006F6B656E732C2069676E6F7265640D0AFB
:103A6000002A2A20746F6B656E20746F6F206C6F54
:103A70006E672C2069676E6F7265640D0A00626C58
:103A80006D000D0A4C61756E6368696E6720626F28
:103A90006F746C6F616465722E2E2E207768696377
:103AA0006820686173206E6F20636F6E736F6C6542
:103AB0002C20736F727279002A2A20626164207050
:103AC0006172616D6574657220636F756E740D0A45
:103AD000006366670055736167653A206366672017
:103AE0002D20757361676520616E64207374617445
:103AF00075730D0A0055736167653A206366672028
:103B00003C64306465783E203C64316465783E20D6
:103B10003C64326465783E202D20736574206472A5
:103B20006177657220696E64657865732028303D21
:103B3000756E61737369676E6564290D0A0D0A00FD
:103B400066746D0055736167653A2066746D202D4B
:103B500020757361676520616E642073746174758C
:103B6000730D0A0055736167653A2066746D203CD9
:103B7000656E7C6469733E202D20666163746F728C
:103B8000792074657374206D6F646520636F6E7443
:103B9000726F6C0D0A00656E006469730075736561
:103BA00020656E7C64697320746F20656E61626C41
:103BB000652F64697361626C650D0A0068656C70DD
:103BC00000626C6D202020203A20666F72636520B1
:103BD00044534220696E746F20424C4D0D0A0063BD
:103BE0006667202020203A20636F6E6669677572D1
:103BF0006174696F6E20636F6E74726F6C2F737473
:103C0000617475730D0A0066746D202020203A20BF
:103C1000666163746F72792074657374206D6F646C
:103C20006520636F6E74726F6C2F7374617475733B
:103C30000D0A006C6F636B2020203A20696E74655A
:103C4000726C6F636B20636F6E74726F6C2F737422
:103C5000617475730D0A006E7620202020203A20B2
:103C600064756D7020454550524F4D0D0A007072BD
:103C70006F782020203A207261772070726F786907
:103C80006D6974792073656E736F7220636F6E74E3
:103C9000726F6C2F7374617475730D0A00726573A3
:103CA000657420203A20736F6674207265736574A2
:103CB0000D0A00736F6C202020203A20736F6C6512
:103CC0006E6F696420636F6E74726F6C2F737461B2
:103CD0007475730D0A00766572202020203A2066E4
:103CE00069726D776172652076657273696F6E0DAA
:103CF0000A0D0A0055736167653A206C6F636B208B
:103D00002D20757361676520616E64207374617422
:103D100075730D0A0055736167653A206C6F636BAC
:103D2000203C676C6F627C6C6F637C616C6C3E20C6
:103D30003C6C6F636B7C756E6C6F636B3E202D20EB
:103D4000736574206C6F636B730D0A0D0A00676CEA
:103D50006F6200756E6C6F636B006C6F6300616CFB
:103D60006C006E760055534552524F5720436F6E8C
:103D700074656E74730D0A00496E64657820003AAC
:103D800030780070726F780055736167653A207003
:103D9000726F78202D20757361676520616E6420D5
:103DA0007374617475730D0A0055736167653A2009
:103DB00070726F78203C656E7C6469733E202D20A4
:103DC00073656E736F7220636F6E74726F6C0D0A21
:103DD0000055736167653A2070726F78203C302E11
:103DE0002E323E203C73746172747C73746F707CED
:103DF000736176653E202D206F666673657420635F
:103E0000616C63756C6174696F6E0D0A0D0A0064F4
:103E10007261776572206D75737420626520302E33
:103E20002E3220616E6420636F6E666967757265FD
:103E300064202873656520276366672729206966E3
:103E4000206E6F7420666163746F7279207465737D
:103E5000740D0A0073746F7000736176650075737A
:103E6000652073746172747C73746F707C73617697
:103E70006520746F20636F6E74726F6C206F66665E
:103E80007365742063616C63756C6174696F6E0D2A
:103E90000A007265736574000D0A536F66742072B0
:103EA000657365742E2E2E00736F6C0055736167F9
:103EB000653A20736F6C202D2075736167652061F2
:103EC0006E64207374617475730D0A0055736167B5
:103ED000653A20736F6C203C6175746F7C6D616E08
:103EE0007C6469733E202D20736574206D6F64655A
:103EF0000D0A0055736167653A20736F6C203C3082
:103F00002E2E323E203C6C6F636B7C756E6C6F6343
:103F10006B3E202D206D616E75616C20636F6E7439
:103F2000726F6C0D0A0D0A006175746F006D616E21
:103F300000757365206175746F7C6D616E7C64695A
:103F4000730D0A00647261776572206D7573742059
:103F5000626520302E2E320D0A00757365206C6F5D
:103F6000636B7C756E6C6F636B20666F722064652B
:103F700073697265642073746174650D0A006F6EF5
:103F80006C79206F6E6520647261776572206D6157
:103F90007920626520756E6C6F636B656420617457
:103FA00020612074696D650D0A006E6F7420656E66
:103FB00061626C6564206F72206E6F7420696E2080
:103FC0006D616E75616C206D6F64650D0A007665BC
:103FD00072002A2A20756E6B6E6F776E20636F6D8C
:103FE0006D616E640D0A00696E76616C69642070A3
:103FF0006172616D657465720D0A0073746172742B
:1040000000082008000D0A2A2A20696E70757420A5
:104010006C696E6520746F6F206C6F6E672C206901
:10402000676E6F7265640D0A00000D070A0E0309C2
:1040300004010C060B0F02080501010164010101D6
:1040400001FFFFFFFFFFFFFFFFFFFFFFFFFFFFFF7E
:10405000FFFFFFFFFFFFFFFFFFFFFFFFFFFFFFFF70
:10406000FFFFFFFFFFFFFFFFFFFFFFFFFFFFFFFF60
:10407000FFFFFFFFFFFFFFFFFFFFFFFFFFFFFFFF50
:10408000FFFFFFFFFFFFFFFFFFFFFFFFFFFFFFFF40
:107FF000FFFFFFFFFFFFFFFFFFFFFFFFFFFF813BD3
:0400000500001400E3
:00000001FF
