:020000040000FA
:100000000C943E000C945B000C945B000C945B0021
:100010000C945B000C945B000C9446050C945B0004
:100020000C945B000C945B000C945B000C945B00E4
:100030000C945B000C945B000C945B000C945B00D4
:100040000C945B000C945B000C945B000C945B00C4
:100050000C945B000C945B000C945B000C945B00B4
:100060000C945B000C945B000C945B000C94840576
:100070000C945B000C945B000C945B0011241FBE7D
:10008000CFEFCDBFDFE3DEBF18E3A0E0B8E3E2E0EF
:10009000FFE002C005900D92A430B107D9F72AE322
:1000A000A4E0B8E301C01D92AF34B207E1F70E94AB
:1000B00084010C947F070C940000382FFC0180E031
:1000C0004CE89E2F931B961758F4219198E0582FD7
:1000D0005227869550FD842726959150C1F7F1CF80
:1000E0000895E0913F3AF091403A0280F381E02D8B
:1000F00009940FB6F8940F9290913638E92FF0E0FA
:10010000E85CF74C808381E0890F883018F4809395
:10011000363802C010923638809137388F5F883079
:1001200008F087E0809337380F900FBE08950F9A3C
:10013000F8942FE986E891E0215080409040E1F763
:1001400000C00000809141018111FCCF80914201EB
:100150008E7F80934201809140018E7F8093400189
:1001600041E068ED81E490E00E945507FFCFCF9316
:10017000C82F8091021081FDFCCF44E06DE980E042
:1001800090E10E945507C0933F1343E06DE980E082
:1001900090E10E9455078091021081FDFCCFCF9124
:1001A0000895EF92FF920F931F93CF93DF93CDB7F4
:1001B000DEB72B97CDBFDEBFCE0101967C018BE071
:1001C000F70111928A95E9F78C89811102C090E0BC
:1001D00001C090E81D89812F82958076892B9E89A8
:1001E0009F71892B89838F898A83412F50E0BE01BB
:1001F000685E7F4FCE0103960E946F0703E0010FF8
:1002000062E0610FC7010E945D00FE01E00FF11D79
:10021000808384E090913E3A992349F0815039F0EF
:10022000EDEBF3E23197F1F700C00000F3CF8091DE
:100230003E3A81114CC0099A019A0E9A80910608A3
:100240008064809306088E898F3111F041E001C0EF
:1002500043E020E030E0642F70E061507109F70165
:100260008E2F8E19801740F481918093020880911F
:10027000040885FFFCCFF4CF62177307B9F42F5F32
:100280003F4F241760F387E592E00197F1F700C034
:100290000000809106088F7B8093060880911104EE
:1002A000877F8093110401980E9824C08091200AC2
:1002B0009091210A8F708B5F90E0E3ECF9E0319729
:1002C000F1F700C000009F5F9817B8F3D8CF809176
:1002D000353A9091363AA091373AB091383A019632
:1002E000A11DB11D8093353A9093363AA093373AC9
:1002F000B093383A2B96CDBFDEBFDF91CF911F91DF
:100300000F91FF90EF900895CF93DF93CDB7DEB7B5
:10031000C458D109CDBFDEBF41E068ED81E690E071
:100320000E94550720913F1381E0223409F480E0B8
:10033000809303388091881290E0982F88279058F6
:1003400080933F3A9093403A80E88093200181E087
:1003500080932101809320018091220180FDFCCFB8
:100360008091220190E890932001223441F081FD98
:100370000E9471001092033882E40E94B70043E0AB
:100380004093493A80911704877F809317040F9A0E
:10039000079A80913204877F8093320480913504DC
:1003A000877F8093350480915304877F8093530423
:1003B0002A98229A2D98259A4B98439A1092400A8F
:1003C0001092450A80915004877F8093500448988A
:1003D000409A80915104877F809351044998419AB3
:1003E00080915204877F809352044A98429A809168
:1003F00002028160809302022B98239A1092000AD5
:1004000010920A0A8091010281608093010280911A
:100410001604877F80931604069A0E980198029816
:100420008BE591E08093080890930908A09125112D
:1004300020910808309109080A2E000CBB0BBC5F04
:100440000E945907DC01CB016AE0B595A795979505
:1004500087956A95D1F7809308089093090840938F
:100460000708109206081092470110924501109259
:100470004201809141018111FCCF10924001109204
:100480004C0110924D0110924801109249011092B6
:100490004A0110924B0141E468ED80E191E00E9435
:1004A00055072FE73AE146E0215030404040E1F760
:1004B00000C00000789480E88093060880930508C7
:1004C0001092483A8FEF8093473A1092463A81E073
:1004D00090910013953A09F080E080934E3A809114
:1004E0004E3A882309F490C010924A3A10924B3A3F
:1004F00010924C3A10924D3A80914A3A90914B3A70
:10050000A0914C3AB0914D3A20910113A22B8093C7
:100510004A3A90934B3AA0934C3AB0934D3A80911B
:100520004A3A90914B3AA0914C3AB0914D3A209171
:100530000213922B80934A3A90934B3AA0934C3AF1
:10054000B0934D3A80914A3A90914B3AA0914C3AEF
:10055000B0914D3A20910313822B80934A3A9093A5
:100560004B3AA0934C3AB0934D3A80914A3A9091CD
:100570004B3AA0914C3AB0914D3A80FF03C0809124
:10058000041301C08FEF8093BF3880914A3A909155
:100590004B3AA0914C3AB0914D3A81FF03C0809103
:1005A000051301C08FEF8093C03880914A3A909133
:1005B0004B3AA0914C3AB0914D3A82FF07C08091DE
:1005C00006138093C138EFEBF8E316C08FEFF9CF35
:1005D0009091473A891730F48093473A9091473A7F
:1005E0009093483A9091463A981710F48093463A7F
:1005F00058E3E23CF50721F081918F3F49F7F8CFAE
:100600008091463A811103C08FEF8093463A5E0194
:100610008DE2A80EB11C5524539414E033243A946F
:100620005CE2652EE7EAF1E63197F1F700C00000E1
:1006300080913538811102C02A9A01C02A98809190
:100640003538852580933538809134388F5F809395
:100650003438813009F0F0C10FB6F8940F928091D0
:10066000C838882379F1E091C7386E9EF0011124D3
:10067000E753F74CDE01A75ABF4F862D01900D922C
:100680008A95E1F76A96DFAC6A976B96CFAC6B9769
:100690006C967FAC6C976D960FAD6D976E964FAC68
:1006A0006E978091C83881508093C8388091C73840
:1006B0008F5F8093C7388091C738883029F41092B3
:1006C000C73802C080E001C081E00F900FBE8823D0
:1006D00009F4B0C1063009F46FC030F4023009F4F7
:1006E000A9C1053059F0A1C1003709F4A9C00737E5
:1006F00009F4BEC0093009F098C171C0D11002C020
:1007000010930138FFE17F1202C01093013821E0FD
:10071000C21210930138F501262D11922A95E9F79E
:100720001EA78FE08FA785E888AB0FB6F8940F92CD
:1007300040913738842F8F7089ABA8E3B8E390E0FD
:1007400080E04817C9F0E92FF0E021E330E02C0FFA
:100750003D1FE20FF31F2C9180FF05C02F703081E9
:10076000232B208306C02295207F3081232B2083DA
:100770009F5F8F5F1196E5CF0F900FBE4DB75EB7AD
:100780004C5251094DBF5EBFADB7BEB711968CE25A
:10079000F50101900D928A95E1F70E94D1000FB604
:1007A000F8940F9210923738109236380F900FBE8F
:1007B00084E18093013841C0DD2019F084E080930A
:1007C00001389FE1791619F084E080930138E1E067
:1007D000CE1609F44BC084E08093013847C0D11095
:1007E00002C010930138FFE17F1202C0109301385C
:1007F00021E0C21210930138F501262D11922A959D
:10080000E9F75EA68FE08FA789E888AB809103386F
:1008100085258295807F89AB4DB75EB74C525109D3
:100820004DBF5EBFADB7BEB71196F501862D0190E5
:100830000D928A95E1F70E94D100CDBFDEBFFAC0CC
:10084000DD2019F084E0809301389FE1791619F0DA
:1008500084E080930138E1E0CE1619F084E08093C3
:10086000013840FEE0C082E40E94B7000E94970079
:100870006A96DFAE6A976B96CFAE6B976C967FAE3B
:100880006C976D960FAF6D976E964FAE6E978CE22C
:10089000FE01E75AFF4FDE01119601900D928A95F5
:1008A000E1F789818111109301388B818E3111F02C
:1008B000109301388A819AEF980F933208F0DEC0C6
:1008C000815090E0E5E0F0E0EC0FFD1FE80FF91F2C
:1008D000608120E030E00197432F50E0481759072E
:1008E00054F4E6E0F0E0EC0FFD1FE40FF51F40814B
:1008F000240F3F5FF1CF21956213C2C08985882301
:1009000021F0813009F096C086C0EF80F884FE2483
:10091000EF24FE24C7018F709927892B09F0B2C0FC
:10092000D701AF77BB2744E0B695A7954A95E1F785
:100930008A2FA09302389091413A992361F0209137
:10094000443A3091453AA701421B530B40315105BF
:1009500009F089C004C0A11195C05092413A34E019
:10096000AA0FBB1F3A95E1F7A15CB74C90E1FE01DD
:100970003A9601900D929A95E1F7811117C0E09295
:10098000423AF092433A812C912C50E1850E911C11
:1009900040E150E06FEF70E0C401815C974C0E9431
:1009A000780780E78816910481F763C0873009F0E3
:1009B00060C0E091423AF091433A8091881290E011
:1009C000982F8827E817F90708F44FC0E13090E81E
:1009D000F90708F04AC08091021080FDFCCFAFE318
:1009E000B8E3CF0180589F47F0588E179F0719F042
:1009F0002D912193FACF43E06DE980E090E10E94D0
:100A000055078091021080FDFCCF8091021082FF7B
:100A10002EC08FE00DC0809102388F3FA9F58091E4
:100A2000413A882389F18FEF1FCF1093013883E07B
:100A30000E94790010923438809133388F5F809310
:100A40003338909101388913EDCD90910038911190
:100A500002C00F9A01C00F9881E089278093003867
:100A600010923338D8CD8DE0E3CF89E0E1CF3092DA
:100A70000238E092443AF092453ADCCF8AE0D8CF8F
:100A80008BE0D6CF8CE0D4CF8EE0D2CF1F920F92E6
:100A90000FB60F9211248F939F93AF93BF938091C2
:100AA0003E3A882329F1809141018111FCCF809148
:100AB00042018E7F80934201809140018E7F80931E
:100AC000400110923E3A10923D3A8091393A90910D
:100AD0003A3AA0913B3AB0913C3A0196A11DB11D22
:100AE0008093393A90933A3AA0933B3AB0933C3A88
:100AF00081E080934301BF91AF919F918F910F90BF
:100B00000FBE0F901F9018951F920F920FB60F9265
:100B100011242F933F934F935F936F937F938F9302
:100B20009F93AF93BF93EF93FF93CF93DF9300D047
:100B3000CDB7DEB7809101088A8380910008898350
:100B40002A818091293A90912A3AA0912B3AB0912A
:100B50002C3A26FB222720F9820F911DA11DB11DE1
:100B60008093293A90932A3AA0932B3AB0932C3A47
:100B700080913D3A8B32D9F410923E3A10923D3A30
:100B800010923238109231388091293A90912A3A55
:100B9000A0912B3AB0912C3A0196A11DB11D8093E2
:100BA000293A90932A3AA0932B3AB0932C3A8A810F
:100BB00082FD53C1E0913D3A81E08E0F80933D3A32
:100BC000F0E08981EA5FF74C808380913D3A813083
:100BD00009F05EC080933E3A8981807690E025E0FE
:100BE000959587952A95E1F78093313889818F71A2
:100BF0008093053880910538882341F0809105382D
:100C0000803148F0809105388E3128F410923E3AB8
:100C100010923D3A35C12091313881E090E001C019
:100C2000880F2A95EAF780933138809131388D5FAB
:100C300080933238909105388091483A981759F04E
:100C4000809105388E3139F09091053881E09F31DF
:100C500019F080E001C081E08170809304388091B8
:100C600041018111FCCF10924801109249018EE898
:100C700090E080934A0190934B0180914201816002
:100C80008093420180914001816080934001F8C0CF
:100C900080913138883099F480913D3A843079F4EC
:100CA00080910738873759F4809108388F5F809397
:100CB0003138809131388D5F80933238E1C0909126
:100CC0003D3A809132389813DBC080914101811107
:100CD000FCCF809140018E7F809340018091420142
:100CE0008E7F8093420180910438882309F4ACC040
:100CF000E0913238F0E0EB5FF74C8081882379F0A7
:100D000060913238615086E098E30E945D00E09186
:100D10003238F0E0EB5FF74C9081891382C040914C
:100D20003138209105380FB6F8940F928091C83869
:100D30008830F1F48091C7388F5F8093C7388091F5
:100D4000C738883011F41092C7388091C23890911A
:100D5000C338A091C438B091C5380196A11DB11D0A
:100D60008093C2389093C338A093C438B093C538E9
:100D7000E091C6388CE28E9FF0011124E753F74CC6
:100D8000DF01982F1D929A95E9F7E091C63890916E
:100D90000638991F9927991F8E9FF0011124E75358
:100DA000F74C9083E091C6388E9FF0011124E753F1
:100DB000F74C4183E091C6388E9FF0011124E75330
:100DC000F74C2283E091C638909107388E9FF0014E
:100DD0001124E753F74C93839091C638899FC00143
:100DE000112450E068E078E38353974C0E946F072A
:100DF0008091C6388F5F8093C6388091C63888301E
:100E000011F41092C6388091C838883020F480914F
:100E1000C8388F5F01C088E08093C8380F900FBE3C
:100E200013C08091313A9091323AA091333AB09107
:100E3000343A0196A11DB11D8093313A9093323A14
:100E4000A093333AB093343A10923E3A10923D3A1E
:100E5000109232381092313813C080912D3A90910F
:100E60002E3AA0912F3AB091303A0196A11DB11DB2
:100E700080932D3A90932E3AA0932F3AB093303A24
:100E80000F900F90DF91CF91FF91EF91BF91AF91B4
:100E90009F918F917F916F915F914F913F912F9192
:100EA0000F900FBE0F901F901895FC0164BF4083F8
:100EB00008950E946007B7FF0895821B930B089561
:100EC000A29FB001B39FC001A39F700D811D11248B
:100ED000911DB29F700D811D1124911D0895FB017C
:100EE000DC0102C001900D9241505040D8F70895A6
:100EF000DC0101C06D9341505040E0F70895F89433
:100F0000FFCF0114FF01FFFFFFFFFFFFFFFFFFFF08
:100F1000FFFFFFFFFFFFFFFFFFFFFFFFFFFFFFFFE1
:100F2000FFFFFFFFFFFFFFFFFFFFFFFFFFFFFFFFD1
:100F3000FFFFFFFFFFFFFFFFFFFFFFFFFFFFFFFFC1
:100F4000FFFFFFFFFFFFFFFFFFFFFFFFFFFFFFFFB1
:1013F000FFFFFFFFFFFFFFFFFFFFFFFFFFFF49486A
:101400000C943E0A0C945B0A0C945B0A0C945B0AE5
:101410000C945B0A0C945B0A0C94C7160C945B0A40
:101420000C945B0A0C945B0A0C945B0A0C945B0AA8
:101430000C945B0A0C9423170C945B0A0C945B0AC3
:101440000C945B0A0C945B0A0C945B0A0C945B0A88
:101450000C945B0A0C945B0A0C945B0A0C945B0A78
:101460000C945B0A0C945B0A0C945B0A0C94931723
:101470000C945B0A0C945B0A0C945B0A11241FBE4B
:10148000CFEFCDBFDFE3DEBF18E3A0E0B8E3EAE0D3
:10149000F4E302C005900D92AA30B107D9F729E311
:1014A000AAE0B8E301C01D92A83AB207E1F70E9492
:1014B000C5100C94F6190C94000A382FFC0180E03A
:1014C0004CE89E2F931B961758F4219198E0582FC3
:1014D0005227869550FD842726959150C1F7F1CF6C
:1014E00008950FB6F8940F9290912938E92FF0E003
:1014F000E55DF74C808381E0890F883018F4809394
:10150000293802C01092293880912A388F5F88309C
:1015100008F087E080932A380F900FBE08958F92CD
:101520009F92AF92BF92CF92DF92EF92FF92109272
:10153000B2381092B1388FEF8093B0381092AF3834
:1015400081E090910013953A09F080E08093B838DB
:101550008091B838882309F4D1C01092B438109221
:10156000B5381092B6381092B7388091B43890914F
:10157000B538A091B638B091B73820910113A22B9D
:101580008093B4389093B538A093B638B093B738F9
:101590008091B4389091B538A091B638B091B738F1
:1015A00020910213922B8093B4389093B538A09376
:1015B000B638B093B7388091B4389091B538A091CF
:1015C000B638B091B73820910313822B8093B4388A
:1015D0009093B538A093B638B093B7388091B438AB
:1015E0009091B538A091B638B091B73880FF03C05C
:1015F0008091041301C08FEF8093CF388091B4386D
:101600009091B538A091B638B091B73881FF03C03A
:101610008091051301C08FEF809316398091B43803
:101620009091B538A091B638B091B73882FF0FC00D
:101630008091061380935D39EFECF8E323E030E00E
:10164000A7E0B3E141E050E06CEB72E047C08FEF00
:10165000F1CF9091B1389F5F9093B1389091B038AD
:10166000891730F48093B0389091B0389093B238A5
:101670009091AF38981710F48093AF388090B438B9
:101680009090B538A090B638B090B7386A01022E65
:1016900002C0CC0CDD1C0A94E2F70D2C000CEE0805
:1016A000FF08C820D920EA20FB20CD28CE28CF284B
:1016B000D1F011968C91119790E0982F8827868B06
:1016C000978BFC908F29868B978BE95BFF4F129647
:1016D0002F5F3F4FAD3083E1B80741F080818F3FEE
:1016E00009F0B7CFF2CF668B778BEFCF8091AF3811
:1016F000811115C08FEF8093AF3811C08FEF8093A9
:10170000AF388CEB92E08093E5389093E638809385
:101710002C3990932D398093733990937439FF90BD
:10172000EF90DF90CF90BF90AF909F908F900895F3
:101730001F93CF93DF93EC01162F8091021081FD50
:10174000FCCF44E06DE980E090E10E946A191883C3
:1017500043E06DE980E090E10E946A1980910210F7
:1017600081FDFCCFDF91CF911F9108950F9AF894DE
:101770002FE986E891E0215080409040E1F700C0D9
:101780000000809141018111FCCF809142018E7F48
:1017900080934201809140018E7F8093400141E01F
:1017A00068ED81E490E00E946A19FFCF49B121E021
:1017B00030E0662349F0B90102C0660F771F8A95B1
:1017C000E2F7CB01842B09C0B90102C0660F771F75
:1017D0008A95E2F7CB018095842389B908951F93F8
:1017E000CF93DF93C82F853A41F0833018F084E01F
:1017F00080930338D1E0DC0F02C0D3E0C0E0109248
:10180000380A1092390A17E4CD1760F460E08C2F83
:101810000E94D60B1C9FF0011124EB5EF64C108247
:10182000CF5FF2CF1092A539DF91CF911F9108952C
:101830000F931F93CF93DF93833018F094E090932E
:10184000033890911D389F5F90931D38913009F0B7
:1018500096C0442319F094E090931C38C82F8091CF
:101860001C38813009F477C038F0823079F1843047
:1018700009F081C085EA7BC01092A539662309F47E
:101880007AC087E4C89F800111240B5E164CF801D2
:101890008081811170C085EA0E94EF0B29B181E03F
:1018A00090E001C0880FCA95EAF7822B89B984E6D7
:1018B00090E08093380A9093390A82E0F80180839F
:1018C00080931C3881E08093A53956C080911B38E5
:1018D0008F5F80931B388430A9F5D0910B060C2FB5
:1018E00010E0D33091F48C2F0E94EF0B87E4809F9F
:1018F000F001819FF00D1124EB5EF64CD08382E065
:101900000E94710A10921C3812C088E290E0809305
:10191000380A9093390A87E4809FF001819FF00D87
:101920001124EB5EF64C81E0808380931C3810928A
:101930001B3883E080930B06809100068E7F809396
:10194000000619C08091000681608093000681E046
:101950008093080611C061110EC087E4C89FF00192
:101960001124EB5EF64C8081813029F48C2F0E948B
:10197000EF0B10921C3880E010921D3801C080E0FF
:10198000DF91CF911F910F910895EF92FF920F93E6
:101990001F93CF93DF93CDB7DEB76797CDBFDEBF81
:1019A000EC86FD860E871F87288B398B4A8B5B8BD5
:1019B0006C8B7D8B8E8B9F8BCE0101967C018BE097
:1019C000F70111928A95E9F78C85811102C090E0A8
:1019D00001C090E81D85812F82958076892B9E8598
:1019E0009F71892B89838F858A83412F50E0BE01A7
:1019F000605F7F4FCE0103960E94ED1903E0010F57
:101A000062E0610FC7010E945D0AFE01E00FF11D57
:101A1000808384E09091AE38992349F0815039F069
:101A2000E4E1F9E03197F1F700C00000F3CF8091D5
:101A3000AE3881114CC0099A019A0E9A809106081D
:101A40008064809306088E858F3111F041E001C0DB
:101A500043E020E030E0642F70E061507109F7014D
:101A60008E2F8E19801740F4819180930208809107
:101A7000040885FFFCCFF4CF62177307B9F42F5F1A
:101A80003F4F241760F387E592E00197F1F700C01C
:101A90000000809106088F7B8093060880911104D6
:101AA000877F8093110401980E9824C08091200AAA
:101AB0009091210A8F708B5F90E0E3ECF9E0319711
:101AC000F1F700C000009F5F9817B8F3D8CF80915E
:101AD000A5389091A638A091A738B091A838019662
:101AE000A11DB11D8093A5389093A638A093A73867
:101AF000B093A8386796CDBFDEBFDF91CF911F911D
:101B00000F91FF90EF9008952F923F924F925F9226
:101B10006F927F928F929F92AF92BF92CF92DF92FD
:101B2000EF92FF920F931F93CF93DF93CDB7DEB762
:101B30002C97CDBFDEBF2C01909120389F5F9093F2
:101B40002038913009F009C3442319F082E08093D2
:101B50001F3890911F38913009F464C0E0F0923042
:101B600009F0F7C21092450A8091400A8E7F809357
:101B7000400A1092CD381092CE38E0911E38B7E46A
:101B8000EB9FF0011124E153F74C1282138214826F
:101B900010921F38DEC280911E3837E4839FF00117
:101BA0001124E153F74C90819F3F21F49091A43987
:101BB000992379F1811102C08DE007C0813011F4C1
:101BC0008EE003C0823019F48FE08093820110927E
:101BD000CC3882E1EAEBF8E3DF011D928A95E9F760
:101BE0001092CD3881E08093CE3810924C0A10923A
:101BF0004D0A10924A0A10924B0A8093460A80932B
:101C0000450A9091400A91609093400A80931F3852
:101C1000A0C28F5F833019F080931E389AC2109251
:101C20001E3897C21B011092CE381092450A80913F
:101C3000400A8E7F8093400A8091CD3810911E38E3
:101C4000882309F44DC2FE0131967F0188E0DF014F
:101C50001D928A95E9F78091BA389091BB386CE370
:101C600070E00E946E196333710580F483E390E0A5
:101C7000861B970BAC015695479580FF02C04F5FBE
:101C80005F4F2CE330E0241B350B11C0633371052B
:101C900061F0635371099B013695279560FF02C07F
:101CA0002F5F3F4F245C3F4F02C02CE330E04701E1
:101CB000CC24C394D12C45E0C601880F991FFC01A8
:101CC000E654F74C5F0180819181B9010E946E1941
:101CD000FB01D5018D919C91B9010E946E19880F6D
:101CE000991F2817390708F4319689EF8E0FF401F0
:101CF00081934F019EEF9C0D963038F4E42FF0E075
:101D0000E650FC44E081482F4E27FFEFCF1ADF0A50
:101D100059E0C516D10481F6E42FF0E0E650FC440A
:101D20002081888528134AC1C12ED12C67E4169FD3
:101D3000C0011124DC01A153B74C5D01FD01E05C41
:101D4000FF4F8981808331963A818B81B0E18B9FEF
:101D5000C0011124932B3C81832B808391833D818F
:101D60008E81E0E18E9FC0011124932B3F81832B54
:101D7000F501ED5BFF4F8083918332962083D5017F
:101D80001F962C911F972111EFC056962D913C91D3
:101D90005797FC01E21BF30B9F01AF01FF0F660B8E
:101DA000770B5A968D919D910D90BC91A02D480F67
:101DB000591F6A1F7B1FD5015A964D935D936D93F2
:101DC0007C935D975E968C915E9791E0980F5E96FE
:101DD0009C935E9783705F96EC915F97E11105C0CD
:101DE000953018F091E05F969C9397E49C9DF001EC
:101DF0009D9DF00D1124DF01A153B74C5F960C910E
:101E00005F97082E000C990B4096880F991FE80FDA
:101E1000F91FE153F74C0023D9F0808191814C01E7
:101E2000990FAA08BB08481959096A097B095A96EB
:101E30004D935D936D937C935D972083318392E006
:101E400075956795579547959A95D1F79A0102C070
:101E50002083318387E48C9DF0018D9DF00D11244A
:101E6000E153F74C86818823E9F083859485A58525
:101E7000B6850196A11DB11D83879487A587B68776
:101E80004097A105B105E8F0273EBFEF3B07CCF432
:101E900017821086118612861682BB24B394AA2458
:101EA000A39436C087819085A185B2850196A11D36
:101EB000B11D87839087A187B2874097A105B1059F
:101EC00010F4B12C0FC02F30310584F4223F4FEFB6
:101ED0003407BCF3138614861586168681E0868344
:101EE000BB24B3941216130614F011C0B12C87E46E
:101EF0008C9DF0018D9DF00D1124E153F74CC9012B
:101F00006EE170E00E9482196183A12C0AC0A12CAD
:101F100087E48C9DF0018D9DF00D1124E153F74C69
:101F20001182C9010E964D9750F487E48C9DF00103
:101F30008D9DF00D1124E153F74C15820AC087E402
:101F40008C9DF0018D9DF00D1124E153F74C81E043
:101F5000858387E48C9DF0018D9DF00D1124E15364
:101F6000F74C208F318F3AC0092E000CAA0BBB0B07
:101F7000F50140895189628973893C014D01640EE4
:101F8000751E861E971EC401B301D50150966D9231
:101F90007D928D929C925397248935892F5F3F4F74
:101FA000248B358B032E000C440B550B0E94961985
:101FB000F501268B378BB12CA12C10C0B12C212F11
:101FC00030E047E4149FF0011124E153F74C828183
:101FD0008F3F09F46AC08F5F828367C08091A63902
:101FE000882309F457C080910638882309F452C029
:101FF000BB2009F44FC08091A539882319F0A110A6
:1020000003C00BC0A11009C057E4159FF0011124B3
:10201000EB5EF64C80818330E9F58CE0D7011D92B0
:102020008A95E9F782E08A838FE18B8389E98C8343
:10203000B7E41B9FF0011124E153F74C20812F706E
:102040002D83DF01AA5BBF4F3C913295330F330FD5
:10205000307C85818295880F807E382B81818F70BE
:10206000382B81E08A258295807F382B3E83E9805A
:1020700082E0F82E0FE119E94F81588569857A854C
:102080008B859C850E94C50C80911E38F20180834F
:10209000D101AC92E0911E38B7E4EB9FF00111241E
:1020A000E153F74C1282138247C087E4829F80017C
:1020B000839F100D11240153174CF8012281838155
:1020C00090E0820F911D0697BCF18481811134C08C
:1020D00081E00E94710A81E0D80114968C932CC093
:1020E0008091A439811127C0212F30E0B7E41B9FD4
:1020F000F0011124E153F74C83818F3F11F08F5F82
:10210000838387E4829F8001839F100D11240153F4
:10211000174CF8012281838190E0820F911D069770
:1021200054F08481811107C081E00E94710A81E02E
:10213000D80114968C93B12C80911E388F5F833018
:1021400019F080931E3802C010921E3810921F386A
:1021500001C0B12C1092203801C0B12C8B2D2C96CF
:10216000CDBFDEBFDF91CF911F910F91FF90EF9018
:10217000DF90CF90BF90AF909F908F907F906F90A7
:102180005F904F903F902F900895CF93DF93CDB7FE
:10219000DEB7A197CDBFDEBF41E068ED81E690E0FC
:1021A0000E946A1981E090913F13923409F480E013
:1021B0008093043880910438811103C084E08093B7
:1021C000033843E04093B33880911704877F8093AE
:1021D00017040F9A079A80913204877F8093320404
:1021E00080913504877F8093350480915304877FE5
:1021F000809353042A98229A2D98259A4B98439AB3
:1022000080911304877F80931304039880911404B2
:10221000877F80931404049880911504877F8093AE
:10222000150405981092400A24E02093410A81E0A9
:102230008093440A10924C0A10924D0A10924A0A56
:1022400010924B0A1092450A9DE0909382014093B0
:10225000920190915004977F909350044898409A2F
:1022600090915104977F909351044998419A90918D
:102270005204977F909352044A98429A9091020296
:102280009160909302022B98239A93E19093010A14
:1022900080930E0A63E670E06093260A7093270A23
:1022A0008093000A1092380A1092390A80E18093D4
:1022B000A00092E09093A10080913404877F8093E6
:1022C000340480913404887F84608093340487E0F0
:1022D000809302062093040610920A0640930B0690
:1022E00089E0809306062DE831E0209314063093B0
:1022F00015062EE230E020931206309313069093D9
:102300000006809101028160809301028091160491
:10231000877F80931604069A0E98019802988BE5A1
:1023200091E08093080890930908A09125112091CD
:102330000808309109080A2E000CBB0BBC5F0E94F4
:10234000B519DC01CB011AE0B595A795979587954E
:102350001A95D1F7809308089093090840930708CD
:102360001092060810924701109245011092420106
:10237000809141018111FCCF1092400110924C01DB
:1023800010924D01109248011092490110924A0199
:1023900010924B012898209A80913004877F809377
:1023A00030042998219A80913104877F80933104E9
:1023B00084E0809310088DE2809316081092130831
:1023C00081E080931308809114088860809314083A
:1023D0008091150881608093150880911508806CA4
:1023E0008093150841E068ED80E191E00E946A1950
:1023F0002FE73AE186E0215030408040E1F700C00D
:102400000000789480E880930608809305080E9475
:102410008F0AA6E0FA2E0FEC18E3D8018C918F3FBB
:10242000E1F040E0BE016F5F7F4FCE010D960E944C
:10243000840DE7EAF1E63197F1F700C0000040E0D3
:10244000BE016F5F7F4FCE010D960E94840D87EA1B
:1024500091E60197F1F700C00000095B1F4F99E377
:10246000043A1907D1F6FA94F110D5CFFFEC2F2ECC
:10247000F8E33F2E81E0D10116968C931697F10177
:1024800017821086118612861B961D921D921D9230
:102490001C921E97EA5BFF4F1082B7E42B0E311C93
:1024A000E4EA2E16E9E33E0631F7882483949E0180
:1024B0002F5F3F4F298F3A8FE4E0DE2E99249394CB
:1024C0006CE0B62E7FE0A72E87EA91E60197F1F740
:1024D00000C0000080912838811102C02A9A01C0F2
:1024E0002A9880912838882580932838809121382F
:1024F0008F5F80932138813009F043C30FB6F89481
:102500000F9280913838882351F1E0913738BE9E80
:10251000F0011124E75CF74CDE011D968B2D019034
:102520000D928A95E1F7CD849E859C8FAF85AD8F06
:10253000B889BB8FE989EE8FFA89F9A38091383881
:10254000815080933838809137388F5F8093373847
:1025500080913738883029F41092373802C080E0F3
:1025600001C081E00F900FBE882309F408C32B8DB2
:10257000263009F4A0C190F4233009F4A5C030F44A
:102580002130A9F1223009F46AC0F4C23B8D343005
:1025900009F413C1353009F432C1ECC28B8D81329C
:1025A00009F4D2C138F4893009F498C1803209F4B1
:1025B000B9C1E0C29B8D903709F4BFC2993921F0AF
:1025C000913509F0D7C27FC2C110D0920338AD8DCA
:1025D000AF3111F0D0920338BC8DB23011F0D092EF
:1025E000033889A18295817080930638C8C2C110D2
:1025F00002C0D0920338ED8DEF3111F4D092033840
:10260000FC8DF13011F0D0920338A98DBA8DEB2DED
:102610001D92EA95E9F7DA82AB8281E88C832091FA
:10262000B3382F702D83309104388091B13838251C
:102630003295307F8F70382B3E834091AF38809138
:10264000B0384295407F8F70482B4F838AE088874F
:10265000E98054E0F52E0FE011E85AE0A7C0C11060
:10266000D0920338FD8DFF3111F0D09203382C8DBC
:10267000213011F0D09203388E8D8C7090E09595BA
:102680008795959587958130910541F08230910528
:1026900051F0892B69F41092A7390CC09092A73998
:1026A0009092073807C09092A7391092073802C05D
:1026B000D09203388E8D86958170809308388E8DE8
:1026C00081708093A6395BC2C11002C0D0920338DA
:1026D0003D8D3F3111F4D09203388C8D813011F053
:1026E000D0920338A98DBA8DEB2D1D92EA95E9F7AA
:1026F000DA82AB8283E88C839E012B5F3F4FEFEC45
:10270000F8E3CF018A5B9F4FDC018C91982F929563
:10271000990F990F907C85818295880F807E892BF7
:1027200091819F70892BD9018D939D01E95BFF4FAA
:102730002E163F0631F78091A639811102C090E034
:1027400001C090E880910638811180E4892B888748
:102750009091A739992341F090910738992311F06E
:10276000886001C0806188879885809108388111D0
:1027700084E0982B8091A439811182E0892B88878D
:102780000FB6F8940F9281E090912A38911101C010
:1027900080E09885892B88870F900FBEE980FA80AA
:1027A0000B811C812D813E814F81588569857A85F9
:1027B0008B859C850E94C50CE2C1C11003C0BB8DF6
:1027C000B0930338ED8DEF3111F4D0920338FC8DC6
:1027D000F13011F0D0920338A98DBA8DEB2D1D92F6
:1027E000EA95E9F79A82AB8284E88C8320910538D8
:1027F0002D83E980FF24F3940FE014E8D4CFC110B7
:1028000002C0D0920338FD8DFF3111F4D09203380D
:102810002C8D213011F0D0920338A98DBA8DEB2D7B
:102820001D92EA95E9F7DA82AB8285E88C830FB6D0
:10283000F8940F9240912A38842F8F708D83ABE2E9
:10284000B8E390E080E04817C9F0E92FF0E025E018
:1028500030E02C0F3D1FE20FF31F2C9180FF05C0CD
:102860002F703081232B208306C02295207F30815A
:10287000232B20839F5F8F5F1196E5CF0F900FBEB4
:10288000E980FA800B811C812D813E814F81588522
:1028900069857A858B859C850E94C50C0FB6F89456
:1028A0000F9210922A38109229380F900FBE84E6AA
:1028B0008093033864C1CC2019F084E080930338FE
:1028C0003D8D3F3119F084E0809303388C8D813049
:1028D00009F44EC184E0809303384AC1C11002C09C
:1028E000D09203389D8D9F3111F4D0920338AC8D76
:1028F000A13011F0D0920338E98DFA8D2B2D119271
:102900002A95E9F79A82AB8289E88C832091043872
:1029100028252295207F2D83E980FF24F3940FE062
:1029200019E841CFC110D09203383D8D3F3111F0ED
:10293000D09203388C8D813011F0D09203388E8D77
:1029400081708093A4391BC1C110D09203389D8D32
:102950009F3111F0D0920338AC8DA13011F0D0929C
:1029600003388091A439882309F409C10FEC18E3D6
:102970001F8E18A2F80180818F3F09F497C02FEFB6
:102980002083EE24E394F12C0F8C02C0EE0CFF1C8C
:102990000A94E2F727010F2C000C66087708809153
:1029A000B83881111EC065EA80E093E10E94980B5F
:1029B00060E081E093E10E94980B60E082E093E1A7
:1029C0000E94980B60E083E093E10E94980B909244
:1029D000B8381092B4381092B5381092B6381092B8
:1029E000B73832E0E316F10461F084E0E816F10450
:1029F00069F0EA94EF2881F4D8016C9184E093E1C6
:102A000009C0F801608185E093E104C0D8016C91B0
:102A100086E093E10E94980B8091B4389091B5388C
:102A2000A091B638B091B73884219521A621B7215D
:102A3000892B8A2B8B2BD1F58091B4389091B538A6
:102A4000A091B638B091B738482A592A6A2A7B2A09
:102A50004092B4385092B5386092B6387092B73818
:102A60008091B4389091B538A091B638B091B7380C
:102A700060E081E093E10E94980B8091B4389091DE
:102A8000B538A091B638B091B73860E082E093E1F4
:102A90000E94980B6091B4387091B5388091B63827
:102AA0009091B73883E093E10E94980BEF8DF8A1E5
:102AB0003196EF8FF8A3095B1F4F339709F05ACF78
:102AC0000E948F0A5CC0C11002C0D0920338FD8DF5
:102AD000FF3111F4D09203382C8D213011F0D092B7
:102AE0000338A98DBA8DEB2D1D92EA95E9F7DA82AC
:102AF000AB82F1EDFC83EE8DE150E53008F04ECE77
:102B0000F0E0EE0FFF1FE051FC440190F081E02D5A
:102B1000309709F443CE80819181A281B381808175
:102B20009181A281B38180819181A281B3818081D1
:102B30009181A281B381888731CECC2019F084E0C5
:102B4000809303382D8D2F3119F084E08093033862
:102B50003C8D313019F084E0809303388E8D80FFF6
:102B600002C062E401C06FEF8FE393E10E94980B13
:102B70000E94B60BD092033883E00E94710A109233
:102B800021388091023890910838891761F041E02E
:102B900064E278E385E298E30E94840D809108382E
:102BA0008093023813C0882389F0809123388823CA
:102BB00021F08091A739811109C040E064E278E3F7
:102BC00085E298E30E94840D809323389091223807
:102BD0001091A739911306C08091013820910738D0
:102BE000821771F041E060912438809125380E946D
:102BF000180C1093223880910738809301381EC03A
:102C00009923E1F081110BC09091B938992339F0E3
:102C100040E060E00E94180C8093B9380FC090919A
:102C20002338992359F0882349F040E060912438F3
:102C3000809125380E94180C8093233880911A388F
:102C40008F5F80931A38843609F085C09AE08091AE
:102C500015088370833051F4915009F492C0A9EFA4
:102C6000B0E01197F1F700C00000F1CF80E9809348
:102C700017088AE09091150896FD09C08150D9F097
:102C8000E9EFF0E03197F1F700C00000F3CF809159
:102C9000150884FD10C0109218088AE0909115085C
:102CA00096FD0FC0815039F0A9EFB0E01197F1F710
:102CB00000C00000F3CF8091140883608093140853
:102CC00060C0809114088360809314089AE080911A
:102CD00015088370833051F4915009F452C0E9EF24
:102CE000F0E03197F1F700C00000F1CF81E9809367
:102CF00017088091150884FD44C020E080E09AE028
:102D00003091150837FD09C09150D9F1A9EFB0E015
:102D10001197F1F700C00000F3CF909114088130B3
:102D200049F49460909314089091180890911408B5
:102D3000936008C09B7F909314082091180890918D
:102D400014089260909314088F5F8230C1F620932C
:102D5000053810921A38809119388F5F809319388E
:102D6000909103388913B0CB80910038811102C053
:102D70000F9A01C00F988825809300381092193857
:102D80009FCB84E00E94710AD0920338E2CF1F9259
:102D90000F920FB60F9211242F933F934F935F938F
:102DA0006F937F938F939F93AF93BF93CF93EF9343
:102DB000FF938091AE38882389F180914101811180
:102DC000FCCF809142018E7F80934201809140012F
:102DD0008E7F809340011092AE381092AD38809172
:102DE000A9389091AA38A091AB38B091AC3801962F
:102DF000A11DB11D8093A9389093AA38A093AB3838
:102E0000B093AC3860912638C1E06C2783E00E9413
:102E1000D60B80912638C827C093263881E080934E
:102E20004301FF91EF91CF91BF91AF919F918F910E
:102E30007F916F915F914F913F912F910F900FBEB6
:102E40000F901F9018951F920F920FB60F9211249A
:102E50002F938F939F93EF93FF938091CE38882386
:102E600009F454C08091CC38893008F04CC080916E
:102E7000CD38811148C0E091CC38F0E080914C0A07
:102E800090914D0AEE0FFF1FE654F74C808391831B
:102E90008091CC38811131C08091BA389091BB3883
:102EA0008C389A4038F08091BA389091BB38813292
:102EB0009D4018F01092CC3829C08091273881119C
:102EC00002C02D9A01C02D989091273881E0892762
:102ED000809327388091CC388F5F8093CC38809155
:102EE0002738811102C02D9A01C02D989091273862
:102EF00081E089278093273809C08091CC388F5F83
:102F00008093CC3803C081E08093CD3881E08093FA
:102F1000460AFF91EF919F918F912F910F900FBED5
:102F20000F901F9018951F920F920FB60F921124B9
:102F30001F932F933F934F935F936F937F938F9341
:102F40009F93AF93BF93EF93FF93CF93DF9300D003
:102F5000CDB7DEB7809101088A838091000889830C
:102F60002A818091993890919A38A0919B38B0919C
:102F70009C3826FB222720F9820F911DA11DB11D2F
:102F80008093993890939A38A0939B38B0939C384B
:102F90008091AD388B3029F51092AE381092AD3853
:102FA000109218388091993890919A38A0919B3856
:102FB000B0919C380196A11DB11D809399389093D2
:102FC0009A38A0939B38B0939C386091263811E0D2
:102FD000612783E00E94D60B809126381827109332
:102FE00026388A8182FD4DC1E091AD3881E08E0F97
:102FF0008093AD38F0E08981E35FF74C80831091D6
:10300000AD38113009F065C060912638612783E042
:103010000E94D60B80912638812780932638109302
:10302000AE388981807690E025E0959587952A9540
:10303000E1F780930C3889818F7180930B388091F0
:103040000B38882341F080910B38803148F0809113
:103050000B388F3128F41092AE381092AD3804C17D
:1030600020910C3881E090E001C0880F2A95EAF7A2
:1030700080930C3880910C388D5F80931838909134
:103080000B388091B238981739F090910B3881E065
:103090009F3119F080E001C081E0817080930A388F
:1030A000809141018111FCCF109248011092490199
:1030B00083E390E080934A0190934B018091420119
:1030C0008160809342018091400181608093400142
:1030D000EBC09091AD38809118389813E5C080917D
:1030E00041018111FCCF809140018E7F809340018E
:1030F000809142018E7F8093420180910A3888231B
:1031000009F4ACC0E0911838F0E0E45FF74C80813E
:10311000882379F06091183861508DE098E30E941F
:103120005D0AE0911838F0E0E45FF74C9081891374
:1031300082C040910C3820910B380FB6F8940F9252
:10314000809138388830F1F4809137388F5F8093E0
:10315000373880913738883011F4109237388091A1
:10316000323890913338A0913438B0913538019687
:10317000A11DB11D8093323890933338A093343819
:10318000B0933538E09136388CE08E9FF0011124F1
:10319000E75CF74CDF01982F1D929A95E9F7E091D3
:1031A000363890910D38991F9927991F8E9FF001FD
:1031B0001124E75CF74C9083E09136388E9FF00144
:1031C0001124E75CF74C4183E09136388E9FF00183
:1031D0001124E75CF74C2283E091363890910E3849
:1031E0008E9FF0011124E75CF74C93839091363861
:1031F000899FC001112450E06FE078E3835C974C15
:103200000E94ED19809136388F5F80933638809117
:103210003638883011F4109236388091383888303A
:1032200020F4809138388F5F01C088E0809338386F
:103230000F900FBE13C08091A1389091A238A09139
:10324000A338B091A4380196A11DB11D8093A13877
:103250009093A238A093A338B093A4381092AE38BC
:103260001092AD38109218386091263811E061271D
:1032700083E00E94D60B80912638182710932638B9
:1032800013C080919D3890919E38A0919F38B09145
:10329000A0380196A11DB11D80939D3890939E3852
:1032A000A0939F38B093A0380F900F90DF91CF91EB
:1032B000FF91EF91BF91AF919F918F917F916F910E
:1032C0005F914F913F912F911F910F900FBE0F90E3
:1032D0001F901895FC0164BF40830895AA1BBB1B77
:1032E00051E107C0AA1FBB1FA617B70710F0A61B06
:1032F000B70B881F991F5A95A9F780959095BC0127
:10330000CD01089597FB072E16F4009407D077FDA2
:1033100009D00E946E1907FC05D03EF49095819566
:103320009F4F0895709561957F4F0895052E97FBE7
:103330001EF400940E94AD1957FD07D00E94BC19DD
:1033400007FC03D04EF40C94AD1950954095309580
:1033500021953F4F4F4F5F4F089590958095709501
:1033600061957F4F8F4F9F4F08950E94DE19B7FFE1
:103370000895821B930B0895A1E21A2EAA1BBB1B72
:10338000FD010DC0AA1FBB1FEE1FFF1FA217B30731
:10339000E407F50720F0A21BB30BE40BF50B661F47
:1033A000771F881F991F1A9469F76095709580950B
:1033B00090959B01AC01BD01CF010895A29FB00182
:1033C000B39FC001A39F700D811D1124911DB29F59
:1033D000700D811D1124911D0895FB01DC0102C0B7
:1033E00001900D9241505040D8F70895F894FFCFC6
:1033F000A938A538A1389D389938000D070A0E0361
:103400000904010C060B0F0208050101016401EC1F
:1034100001010100FFFFFFFFFFFFFFFFFFFFFFFFB5
:10342000FFFFFFFFFFFFFFFFFFFFFFFFFFFFFFFFAC
:10343000FFFFFFFFFFFFFFFFFFFFFFFFFFFFFFFF9C
:10344000FFFFFFFFFFFFFFFFFFFFFFFFFFFFFFFF8C
:10345000FFFFFFFFFFFFFFFFFFFFFFFFFFFFFFFF7C
:107FF000FFFFFFFFFFFFFFFFFFFFFFFFFFFF1C8FE4
:0400000500001400E3
:00000001FF
